:020000001528C1
:100008007E1480312100901E0A280B281328200016
:10001800901E0F28102813288231952280317E10D7
:1000280009001628FC01FD012000A001A101A20180
:10003800A301A401A501A601A7017E10200027297C
:1000480082313022803174084B3E2000A2000030FB
:10005800753DA30082313022803175082000A5004B
:100068007408A4002308803AF8002508803A78022A
:10007800031D402824082202031843284428512835
:1000880001302000AD0203194A284B284C282E289D
:100098000430F8007808AD00A728013082314122E9
:1000A80080310430F800F830890B5828F80B5828AC
:1000B8000032003082314122803101302000AB0211
:1000C80003196728682869282E282030F80078083E
:1000D800AB00FC1C702871287E280130AA02031D81
:1000E800762877287E282830F8007808AA00FC109F
:1000F80022008C12013082314122803120002408F4
:100108004B3EF8000030253DF9002308803AFA00FC
:100118007908803A7A02031D932878082202031886
:10012800962897289D2801302000A2070030A33D7B
:10013800A228FF302000A207FF30A33D0030823103
:10014800412280312E28080001308231412280313D
:100158003430F800F230890BAF28F80BAF280030A4
:1001680082314122803122008C1682313022803146
:1001780075082000A5007408A4002408C43EA00047
:10018800FF30253DA1002508803AF8002108803A73
:100198007802031DD128200824020318D428D52862
:1001A800E22801302000AC020319DB28DC28DD2816
:1001B800A8280430F8007808AC00262901308231DC
:1001C800412280310430F800F830890BE928F80B17
:1001D800E9280032003082314122803120002B088A
:1001E8000319F728F828F928B9282030F8007808E2
:1001F800AB00013082314122803120002408C43E06
:10020800F800FF30253DF9002108803AFA00790806
:10021800803A7A02031D122978082002031815294A
:1002280016291C2901302000A0070030A13D2129F2
:10023800FF302000A007FF30A13D0030823141226D
:100248008031B92808008131782181310030F000EF
:10025800F100823169228131FB007B08FC007C1CA3
:10026800362937293D2928302000A0000030A10078
:1002780060298031242081317C140030F000F100A5
:100288007C08FB007B08F2008131BC2181313430CD
:10029800FB00F230890B4E29FB0B4E2982313022AC
:1002A800813175082000A5007408A4002408C43E04
:1002B800A000FF30253DA1008031A82081317C10AD
:1002C8000030F000F1007C08FB007B08F20081316F
:1002D800BC218131FC143430FB00F230890B7229C7
:1002E800FB0B72293D29152882311D22813182316B
:1002F8007E228131043082314F2281319D30F000DD
:100308000130F10082318F2281318B170B171930A0
:10031800F20072082000AD001930F2007208AC003B
:100328002030F2007208AB002830F2007208AA00F0
:100338000800AF2922000C15BB297C1CA429A5297B
:10034800A82922000C15BB2922000C11BB29FD018C
:1003580022000C11BB297D08FD0A003A03199E29C9
:10036800013A0319A129063A0319AB29BB29080048
:1003780000308B1B0130F3007108310092007008C7
:10038800910072089300151715158B1355309600B8
:10039800AA30960095149518D229D329CF2915117A
:1003A800730C031C8B1303188B170800F3007308D6
:1003B800F200F20DF20D21001D08720603397206D3
:1003C8009D001D140630890BE729003221009D1479
:1003D8009D18EF29F029EC291C08F1001B08F000F2
:1003E80008004E30200098001E30960095019012AB
:1003F80021009016A130F0000230F10082318F22E6
:100408008131803020009700080022008C011330D1
:1004180021008C00103023008C00033024008C0055
:1004280025008C01373026008C003F3027008C00D7
:100438000800823187228231823109228231823159
:100448007522823182319B22823182317E22823131
:100458008131F5218231080004308131DA2182317D
:100468007008F6007108F700F736F60CF736F60C48
:100478007608F4007708F5000800F00021008C10D9
:100488007003031D482A492A4C2A22008C144E2A3C
:1004980022008C100800F1007108F000F00DF00D3A
:1004A80021001D087006033970069D001D14080000
:1004B8002000280829040319622A632A682A2908BF
:1004C8008A0028080A008231080071083100920069
:1004D800700891001517151400000000310013086A
:1004E80008006030320099009B019D0106309F0092
:1004F8009E010800A03021009E009F019B019C01E5
:1005080011309D000800320091019201930194017D
:1005180095019601080071082000A9007008A8003C
:1005280008002000901282315C22823108001630C7
:0C05380021009700080001340034080086
:020000040001F9
:08000E008C3FF33FFF3FFF3F71
:00000001FF
